{
  "_format": "hh-sol-artifact-1",
  "contractName": "MyERC721",
  "sourceName": "contracts/ERC721.sol",
  "abi": [
    {
      "inputs": [
        {
          "internalType": "address",
          "name": "initialOwner",
          "type": "address"
        }
      ],
      "stateMutability": "nonpayable",
      "type": "constructor"
    },
    {
      "inputs": [],
      "name": "ERC721EnumerableForbiddenBatchMint",
      "type": "error"
    },
    {
      "inputs": [
        {
          "internalType": "address",
          "name": "sender",
          "type": "address"
        },
        {
          "internalType": "uint256",
          "name": "tokenId",
          "type": "uint256"
        },
        {
          "internalType": "address",
          "name": "owner",
          "type": "address"
        }
      ],
      "name": "ERC721IncorrectOwner",
      "type": "error"
    },
    {
      "inputs": [
        {
          "internalType": "address",
          "name": "operator",
          "type": "address"
        },
        {
          "internalType": "uint256",
          "name": "tokenId",
          "type": "uint256"
        }
      ],
      "name": "ERC721InsufficientApproval",
      "type": "error"
    },
    {
      "inputs": [
        {
          "internalType": "address",
          "name": "approver",
          "type": "address"
        }
      ],
      "name": "ERC721InvalidApprover",
      "type": "error"
    },
    {
      "inputs": [
        {
          "internalType": "address",
          "name": "operator",
          "type": "address"
        }
      ],
      "name": "ERC721InvalidOperator",
      "type": "error"
    },
    {
      "inputs": [
        {
          "internalType": "address",
          "name": "owner",
          "type": "address"
        }
      ],
      "name": "ERC721InvalidOwner",
      "type": "error"
    },
    {
      "inputs": [
        {
          "internalType": "address",
          "name": "receiver",
          "type": "address"
        }
      ],
      "name": "ERC721InvalidReceiver",
      "type": "error"
    },
    {
      "inputs": [
        {
          "internalType": "address",
          "name": "sender",
          "type": "address"
        }
      ],
      "name": "ERC721InvalidSender",
      "type": "error"
    },
    {
      "inputs": [
        {
          "internalType": "uint256",
          "name": "tokenId",
          "type": "uint256"
        }
      ],
      "name": "ERC721NonexistentToken",
      "type": "error"
    },
    {
      "inputs": [
        {
          "internalType": "address",
          "name": "owner",
          "type": "address"
        },
        {
          "internalType": "uint256",
          "name": "index",
          "type": "uint256"
        }
      ],
      "name": "ERC721OutOfBoundsIndex",
      "type": "error"
    },
    {
      "inputs": [
        {
          "internalType": "address",
          "name": "owner",
          "type": "address"
        }
      ],
      "name": "OwnableInvalidOwner",
      "type": "error"
    },
    {
      "inputs": [
        {
          "internalType": "address",
          "name": "account",
          "type": "address"
        }
      ],
      "name": "OwnableUnauthorizedAccount",
      "type": "error"
    },
    {
      "anonymous": false,
      "inputs": [
        {
          "indexed": true,
          "internalType": "address",
          "name": "owner",
          "type": "address"
        },
        {
          "indexed": true,
          "internalType": "address",
          "name": "approved",
          "type": "address"
        },
        {
          "indexed": true,
          "internalType": "uint256",
          "name": "tokenId",
          "type": "uint256"
        }
      ],
      "name": "Approval",
      "type": "event"
    },
    {
      "anonymous": false,
      "inputs": [
        {
          "indexed": true,
          "internalType": "address",
          "name": "owner",
          "type": "address"
        },
        {
          "indexed": true,
          "internalType": "address",
          "name": "operator",
          "type": "address"
        },
        {
          "indexed": false,
          "internalType": "bool",
          "name": "approved",
          "type": "bool"
        }
      ],
      "name": "ApprovalForAll",
      "type": "event"
    },
    {
      "anonymous": false,
      "inputs": [
        {
          "indexed": true,
          "internalType": "address",
          "name": "previousOwner",
          "type": "address"
        },
        {
          "indexed": true,
          "internalType": "address",
          "name": "newOwner",
          "type": "address"
        }
      ],
      "name": "OwnershipTransferred",
      "type": "event"
    },
    {
      "anonymous": false,
      "inputs": [
        {
          "indexed": true,
          "internalType": "address",
          "name": "from",
          "type": "address"
        },
        {
          "indexed": true,
          "internalType": "address",
          "name": "to",
          "type": "address"
        },
        {
          "indexed": true,
          "internalType": "uint256",
          "name": "tokenId",
          "type": "uint256"
        }
      ],
      "name": "Transfer",
      "type": "event"
    },
    {
      "inputs": [],
      "name": "MAX_SUPPLY",
      "outputs": [
        {
          "internalType": "uint256",
          "name": "",
          "type": "uint256"
        }
      ],
      "stateMutability": "view",
      "type": "function"
    },
    {
      "inputs": [],
      "name": "MINT_PRICE",
      "outputs": [
        {
          "internalType": "uint256",
          "name": "",
          "type": "uint256"
        }
      ],
      "stateMutability": "view",
      "type": "function"
    },
    {
      "inputs": [
        {
          "internalType": "address",
          "name": "to",
          "type": "address"
        },
        {
          "internalType": "uint256",
          "name": "tokenId",
          "type": "uint256"
        }
      ],
      "name": "approve",
      "outputs": [],
      "stateMutability": "nonpayable",
      "type": "function"
    },
    {
      "inputs": [
        {
          "internalType": "address",
          "name": "owner",
          "type": "address"
        }
      ],
      "name": "balanceOf",
      "outputs": [
        {
          "internalType": "uint256",
          "name": "",
          "type": "uint256"
        }
      ],
      "stateMutability": "view",
      "type": "function"
    },
    {
      "inputs": [],
      "name": "currentSupply",
      "outputs": [
        {
          "internalType": "uint256",
          "name": "",
          "type": "uint256"
        }
      ],
      "stateMutability": "view",
      "type": "function"
    },
    {
      "inputs": [
        {
          "internalType": "uint256",
          "name": "tokenId",
          "type": "uint256"
        }
      ],
      "name": "getApproved",
      "outputs": [
        {
          "internalType": "address",
          "name": "",
          "type": "address"
        }
      ],
      "stateMutability": "view",
      "type": "function"
    },
    {
      "inputs": [
        {
          "internalType": "address",
          "name": "owner",
          "type": "address"
        },
        {
          "internalType": "address",
          "name": "operator",
          "type": "address"
        }
      ],
      "name": "isApprovedForAll",
      "outputs": [
        {
          "internalType": "bool",
          "name": "",
          "type": "bool"
        }
      ],
      "stateMutability": "view",
      "type": "function"
    },
    {
      "inputs": [],
      "name": "mint",
      "outputs": [],
      "stateMutability": "payable",
      "type": "function"
    },
    {
      "inputs": [],
      "name": "name",
      "outputs": [
        {
          "internalType": "string",
          "name": "",
          "type": "string"
        }
      ],
      "stateMutability": "view",
      "type": "function"
    },
    {
      "inputs": [],
      "name": "owner",
      "outputs": [
        {
          "internalType": "address",
          "name": "",
          "type": "address"
        }
      ],
      "stateMutability": "view",
      "type": "function"
    },
    {
      "inputs": [
        {
          "internalType": "uint256",
          "name": "tokenId",
          "type": "uint256"
        }
      ],
      "name": "ownerOf",
      "outputs": [
        {
          "internalType": "address",
          "name": "",
          "type": "address"
        }
      ],
      "stateMutability": "view",
      "type": "function"
    },
    {
      "inputs": [],
      "name": "renounceOwnership",
      "outputs": [],
      "stateMutability": "nonpayable",
      "type": "function"
    },
    {
      "inputs": [
        {
          "internalType": "address",
          "name": "from",
          "type": "address"
        },
        {
          "internalType": "address",
          "name": "to",
          "type": "address"
        },
        {
          "internalType": "uint256",
          "name": "tokenId",
          "type": "uint256"
        }
      ],
      "name": "safeTransferFrom",
      "outputs": [],
      "stateMutability": "nonpayable",
      "type": "function"
    },
    {
      "inputs": [
        {
          "internalType": "address",
          "name": "from",
          "type": "address"
        },
        {
          "internalType": "address",
          "name": "to",
          "type": "address"
        },
        {
          "internalType": "uint256",
          "name": "tokenId",
          "type": "uint256"
        },
        {
          "internalType": "bytes",
          "name": "data",
          "type": "bytes"
        }
      ],
      "name": "safeTransferFrom",
      "outputs": [],
      "stateMutability": "nonpayable",
      "type": "function"
    },
    {
      "inputs": [
        {
          "internalType": "address",
          "name": "operator",
          "type": "address"
        },
        {
          "internalType": "bool",
          "name": "approved",
          "type": "bool"
        }
      ],
      "name": "setApprovalForAll",
      "outputs": [],
      "stateMutability": "nonpayable",
      "type": "function"
    },
    {
      "inputs": [
        {
          "internalType": "bytes4",
          "name": "interfaceId",
          "type": "bytes4"
        }
      ],
      "name": "supportsInterface",
      "outputs": [
        {
          "internalType": "bool",
          "name": "",
          "type": "bool"
        }
      ],
      "stateMutability": "view",
      "type": "function"
    },
    {
      "inputs": [],
      "name": "symbol",
      "outputs": [
        {
          "internalType": "string",
          "name": "",
          "type": "string"
        }
      ],
      "stateMutability": "view",
      "type": "function"
    },
    {
      "inputs": [
        {
          "internalType": "uint256",
          "name": "index",
          "type": "uint256"
        }
      ],
      "name": "tokenByIndex",
      "outputs": [
        {
          "internalType": "uint256",
          "name": "",
          "type": "uint256"
        }
      ],
      "stateMutability": "view",
      "type": "function"
    },
    {
      "inputs": [
        {
          "internalType": "address",
          "name": "owner",
          "type": "address"
        },
        {
          "internalType": "uint256",
          "name": "index",
          "type": "uint256"
        }
      ],
      "name": "tokenOfOwnerByIndex",
      "outputs": [
        {
          "internalType": "uint256",
          "name": "",
          "type": "uint256"
        }
      ],
      "stateMutability": "view",
      "type": "function"
    },
    {
      "inputs": [
        {
          "internalType": "uint256",
          "name": "tokenId",
          "type": "uint256"
        }
      ],
      "name": "tokenURI",
      "outputs": [
        {
          "internalType": "string",
          "name": "",
          "type": "string"
        }
      ],
      "stateMutability": "view",
      "type": "function"
    },
    {
      "inputs": [],
      "name": "totalSupply",
      "outputs": [
        {
          "internalType": "uint256",
          "name": "",
          "type": "uint256"
        }
      ],
      "stateMutability": "view",
      "type": "function"
    },
    {
      "inputs": [
        {
          "internalType": "address",
          "name": "from",
          "type": "address"
        },
        {
          "internalType": "address",
          "name": "to",
          "type": "address"
        },
        {
          "internalType": "uint256",
          "name": "tokenId",
          "type": "uint256"
        }
      ],
      "name": "transferFrom",
      "outputs": [],
      "stateMutability": "nonpayable",
      "type": "function"
    },
    {
      "inputs": [
        {
          "internalType": "address",
          "name": "newOwner",
          "type": "address"
        }
      ],
      "name": "transferOwnership",
      "outputs": [],
      "stateMutability": "nonpayable",
      "type": "function"
    },
    {
      "inputs": [],
      "name": "withdraw",
      "outputs": [],
      "stateMutability": "nonpayable",
      "type": "function"
    }
  ],
  "bytecode": "0x60806040523480156200001157600080fd5b506040516200322e3803806200322e833981810160405281019062000037919062000288565b806040518060400160405280600d81526020017f4d79455243373231546f6b656e000000000000000000000000000000000000008152506040518060400160405280600381526020017f4d455400000000000000000000000000000000000000000000000000000000008152508160009081620000b5919062000534565b508060019081620000c7919062000534565b505050600073ffffffffffffffffffffffffffffffffffffffff168173ffffffffffffffffffffffffffffffffffffffff16036200013f5760006040517f1e4fbdf70000000000000000000000000000000000000000000000000000000081526004016200013691906200062c565b60405180910390fd5b62000150816200015860201b60201c565b505062000649565b6000600a60009054906101000a900473ffffffffffffffffffffffffffffffffffffffff16905081600a60006101000a81548173ffffffffffffffffffffffffffffffffffffffff021916908373ffffffffffffffffffffffffffffffffffffffff1602179055508173ffffffffffffffffffffffffffffffffffffffff168173ffffffffffffffffffffffffffffffffffffffff167f8be0079c531659141344cd1fd0a4f28419497f9722a3daafe3b4186f6b6457e060405160405180910390a35050565b600080fd5b600073ffffffffffffffffffffffffffffffffffffffff82169050919050565b6000620002508262000223565b9050919050565b620002628162000243565b81146200026e57600080fd5b50565b600081519050620002828162000257565b92915050565b600060208284031215620002a157620002a06200021e565b5b6000620002b18482850162000271565b91505092915050565b600081519050919050565b7f4e487b7100000000000000000000000000000000000000000000000000000000600052604160045260246000fd5b7f4e487b7100000000000000000000000000000000000000000000000000000000600052602260045260246000fd5b600060028204905060018216806200033c57607f821691505b602082108103620003525762000351620002f4565b5b50919050565b60008190508160005260206000209050919050565b60006020601f8301049050919050565b600082821b905092915050565b600060088302620003bc7fffffffffffffffffffffffffffffffffffffffffffffffffffffffffffffffff826200037d565b620003c886836200037d565b95508019841693508086168417925050509392505050565b6000819050919050565b6000819050919050565b6000620004156200040f6200040984620003e0565b620003ea565b620003e0565b9050919050565b6000819050919050565b6200043183620003f4565b6200044962000440826200041c565b8484546200038a565b825550505050565b600090565b6200046062000451565b6200046d81848462000426565b505050565b5b8181101562000495576200048960008262000456565b60018101905062000473565b5050565b601f821115620004e457620004ae8162000358565b620004b9846200036d565b81016020851015620004c9578190505b620004e1620004d8856200036d565b83018262000472565b50505b505050565b600082821c905092915050565b60006200050960001984600802620004e9565b1980831691505092915050565b6000620005248383620004f6565b9150826002028217905092915050565b6200053f82620002ba565b67ffffffffffffffff8111156200055b576200055a620002c5565b5b62000567825462000323565b6200057482828562000499565b600060209050601f831160018114620005ac576000841562000597578287015190505b620005a3858262000516565b86555062000613565b601f198416620005bc8662000358565b60005b82811015620005e657848901518255600182019150602085019450602081019050620005bf565b8683101562000606578489015162000602601f891682620004f6565b8355505b6001600288020188555050505b505050505050565b620006268162000243565b82525050565b60006020820190506200064360008301846200061b565b92915050565b612bd580620006596000396000f3fe60806040526004361061014b5760003560e01c80636352211e116100b6578063a22cb4651161006f578063a22cb46514610473578063b88d4fde1461049c578063c002d23d146104c5578063c87b56dd146104f0578063e985e9c51461052d578063f2fde38b1461056a5761014b565b80636352211e1461036157806370a082311461039e578063715018a6146103db578063771282f6146103f25780638da5cb5b1461041d57806395d89b41146104485761014b565b806323b872dd1161010857806323b872dd146102535780632f745c591461027c57806332cb6b0c146102b95780633ccfd60b146102e457806342842e0e146102fb5780634f6ccce7146103245761014b565b806301ffc9a71461015057806306fdde031461018d578063081812fc146101b8578063095ea7b3146101f55780631249c58b1461021e57806318160ddd14610228575b600080fd5b34801561015c57600080fd5b5061017760048036038101906101729190612252565b610593565b604051610184919061229a565b60405180910390f35b34801561019957600080fd5b506101a261060d565b6040516101af9190612345565b60405180910390f35b3480156101c457600080fd5b506101df60048036038101906101da919061239d565b61069f565b6040516101ec919061240b565b60405180910390f35b34801561020157600080fd5b5061021c60048036038101906102179190612452565b6106bb565b005b6102266106d1565b005b34801561023457600080fd5b5061023d610800565b60405161024a91906124a1565b60405180910390f35b34801561025f57600080fd5b5061027a600480360381019061027591906124bc565b61080d565b005b34801561028857600080fd5b506102a3600480360381019061029e9190612452565b61090f565b6040516102b091906124a1565b60405180910390f35b3480156102c557600080fd5b506102ce6109b8565b6040516102db91906124a1565b60405180910390f35b3480156102f057600080fd5b506102f96109be565b005b34801561030757600080fd5b50610322600480360381019061031d91906124bc565b610a16565b005b34801561033057600080fd5b5061034b6004803603810190610346919061239d565b610a36565b60405161035891906124a1565b60405180910390f35b34801561036d57600080fd5b506103886004803603810190610383919061239d565b610aac565b604051610395919061240b565b60405180910390f35b3480156103aa57600080fd5b506103c560048036038101906103c0919061250f565b610abe565b6040516103d291906124a1565b60405180910390f35b3480156103e757600080fd5b506103f0610b78565b005b3480156103fe57600080fd5b50610407610b8c565b60405161041491906124a1565b60405180910390f35b34801561042957600080fd5b50610432610b9b565b60405161043f919061240b565b60405180910390f35b34801561045457600080fd5b5061045d610bc5565b60405161046a9190612345565b60405180910390f35b34801561047f57600080fd5b5061049a60048036038101906104959190612568565b610c57565b005b3480156104a857600080fd5b506104c360048036038101906104be91906126dd565b610c6d565b005b3480156104d157600080fd5b506104da610c8a565b6040516104e791906124a1565b60405180910390f35b3480156104fc57600080fd5b506105176004803603810190610512919061239d565b610c96565b6040516105249190612345565b60405180910390f35b34801561053957600080fd5b50610554600480360381019061054f9190612760565b610cff565b604051610561919061229a565b60405180910390f35b34801561057657600080fd5b50610591600480360381019061058c919061250f565b610d93565b005b60007f780e9d63000000000000000000000000000000000000000000000000000000007bffffffffffffffffffffffffffffffffffffffffffffffffffffffff1916827bffffffffffffffffffffffffffffffffffffffffffffffffffffffff19161480610606575061060582610e19565b5b9050919050565b60606000805461061c906127cf565b80601f0160208091040260200160405190810160405280929190818152602001828054610648906127cf565b80156106955780601f1061066a57610100808354040283529160200191610695565b820191906000526020600020905b81548152906001019060200180831161067857829003601f168201915b5050505050905090565b60006106aa82610efb565b506106b482610f83565b9050919050565b6106cd82826106c8610fc0565b610fc8565b5050565b6127106106dc610800565b1061071c576040517f08c379a00000000000000000000000000000000000000000000000000000000081526004016107139061284c565b60405180910390fd5b67016345785d8a0000341015610767576040517f08c379a000000000000000000000000000000000000000000000000000000000815260040161075e906128b8565b60405180910390fd5b6000600b5490506107783382610fda565b6001600b600082825461078b9190612907565b9250508190555067016345785d8a00003411156107fd573373ffffffffffffffffffffffffffffffffffffffff166108fc67016345785d8a0000346107d0919061293b565b9081150290604051600060405180830381858888f193505050501580156107fb573d6000803e3d6000fd5b505b50565b6000600880549050905090565b600073ffffffffffffffffffffffffffffffffffffffff168273ffffffffffffffffffffffffffffffffffffffff160361087f5760006040517f64a0ae92000000000000000000000000000000000000000000000000000000008152600401610876919061240b565b60405180910390fd5b6000610893838361088e610fc0565b610ff8565b90508373ffffffffffffffffffffffffffffffffffffffff168173ffffffffffffffffffffffffffffffffffffffff1614610909578382826040517f64283d7b0000000000000000000000000000000000000000000000000000000081526004016109009392919061296f565b60405180910390fd5b50505050565b600061091a83610abe565b821061095f5782826040517fa57d13dc0000000000000000000000000000000000000000000000000000000081526004016109569291906129a6565b60405180910390fd5b600660008473ffffffffffffffffffffffffffffffffffffffff1673ffffffffffffffffffffffffffffffffffffffff168152602001908152602001600020600083815260200190815260200160002054905092915050565b61271081565b6109c6611115565b6109ce610b9b565b73ffffffffffffffffffffffffffffffffffffffff166108fc479081150290604051600060405180830381858888f19350505050158015610a13573d6000803e3d6000fd5b50565b610a3183838360405180602001604052806000815250610c6d565b505050565b6000610a40610800565b8210610a86576000826040517fa57d13dc000000000000000000000000000000000000000000000000000000008152600401610a7d9291906129a6565b60405180910390fd5b60088281548110610a9a57610a996129cf565b5b90600052602060002001549050919050565b6000610ab782610efb565b9050919050565b60008073ffffffffffffffffffffffffffffffffffffffff168273ffffffffffffffffffffffffffffffffffffffff1603610b315760006040517f89c62b64000000000000000000000000000000000000000000000000000000008152600401610b28919061240b565b60405180910390fd5b600360008373ffffffffffffffffffffffffffffffffffffffff1673ffffffffffffffffffffffffffffffffffffffff168152602001908152602001600020549050919050565b610b80611115565b610b8a600061119c565b565b6000610b96610800565b905090565b6000600a60009054906101000a900473ffffffffffffffffffffffffffffffffffffffff16905090565b606060018054610bd4906127cf565b80601f0160208091040260200160405190810160405280929190818152602001828054610c00906127cf565b8015610c4d5780601f10610c2257610100808354040283529160200191610c4d565b820191906000526020600020905b815481529060010190602001808311610c3057829003601f168201915b5050505050905090565b610c69610c62610fc0565b8383611262565b5050565b610c7884848461080d565b610c84848484846113d1565b50505050565b67016345785d8a000081565b6060610ca182610efb565b506000610cac611588565b90506000815111610ccc5760405180602001604052806000815250610cf7565b80610cd68461159f565b604051602001610ce7929190612a3a565b6040516020818303038152906040525b915050919050565b6000600560008473ffffffffffffffffffffffffffffffffffffffff1673ffffffffffffffffffffffffffffffffffffffff16815260200190815260200160002060008373ffffffffffffffffffffffffffffffffffffffff1673ffffffffffffffffffffffffffffffffffffffff16815260200190815260200160002060009054906101000a900460ff16905092915050565b610d9b611115565b600073ffffffffffffffffffffffffffffffffffffffff168173ffffffffffffffffffffffffffffffffffffffff1603610e0d5760006040517f1e4fbdf7000000000000000000000000000000000000000000000000000000008152600401610e04919061240b565b60405180910390fd5b610e168161119c565b50565b60007f80ac58cd000000000000000000000000000000000000000000000000000000007bffffffffffffffffffffffffffffffffffffffffffffffffffffffff1916827bffffffffffffffffffffffffffffffffffffffffffffffffffffffff19161480610ee457507f5b5e139f000000000000000000000000000000000000000000000000000000007bffffffffffffffffffffffffffffffffffffffffffffffffffffffff1916827bffffffffffffffffffffffffffffffffffffffffffffffffffffffff1916145b80610ef45750610ef38261166d565b5b9050919050565b600080610f07836116d7565b9050600073ffffffffffffffffffffffffffffffffffffffff168173ffffffffffffffffffffffffffffffffffffffff1603610f7a57826040517f7e273289000000000000000000000000000000000000000000000000000000008152600401610f7191906124a1565b60405180910390fd5b80915050919050565b60006004600083815260200190815260200160002060009054906101000a900473ffffffffffffffffffffffffffffffffffffffff169050919050565b600033905090565b610fd58383836001611714565b505050565b610ff48282604051806020016040528060008152506118d9565b5050565b6000806110068585856118f5565b9050600073ffffffffffffffffffffffffffffffffffffffff168173ffffffffffffffffffffffffffffffffffffffff160361104a5761104584611b0f565b611089565b8473ffffffffffffffffffffffffffffffffffffffff168173ffffffffffffffffffffffffffffffffffffffff1614611088576110878185611b58565b5b5b600073ffffffffffffffffffffffffffffffffffffffff168573ffffffffffffffffffffffffffffffffffffffff16036110cb576110c684611cb9565b61110a565b8473ffffffffffffffffffffffffffffffffffffffff168173ffffffffffffffffffffffffffffffffffffffff1614611109576111088585611d8a565b5b5b809150509392505050565b61111d610fc0565b73ffffffffffffffffffffffffffffffffffffffff1661113b610b9b565b73ffffffffffffffffffffffffffffffffffffffff161461119a5761115e610fc0565b6040517f118cdaa7000000000000000000000000000000000000000000000000000000008152600401611191919061240b565b60405180910390fd5b565b6000600a60009054906101000a900473ffffffffffffffffffffffffffffffffffffffff16905081600a60006101000a81548173ffffffffffffffffffffffffffffffffffffffff021916908373ffffffffffffffffffffffffffffffffffffffff1602179055508173ffffffffffffffffffffffffffffffffffffffff168173ffffffffffffffffffffffffffffffffffffffff167f8be0079c531659141344cd1fd0a4f28419497f9722a3daafe3b4186f6b6457e060405160405180910390a35050565b600073ffffffffffffffffffffffffffffffffffffffff168273ffffffffffffffffffffffffffffffffffffffff16036112d357816040517f5b08ba180000000000000000000000000000000000000000000000000000000081526004016112ca919061240b565b60405180910390fd5b80600560008573ffffffffffffffffffffffffffffffffffffffff1673ffffffffffffffffffffffffffffffffffffffff16815260200190815260200160002060008473ffffffffffffffffffffffffffffffffffffffff1673ffffffffffffffffffffffffffffffffffffffff16815260200190815260200160002060006101000a81548160ff0219169083151502179055508173ffffffffffffffffffffffffffffffffffffffff168373ffffffffffffffffffffffffffffffffffffffff167f17307eab39ab6107e8899845ad3d59bd9653f200f220920489ca2b5937696c31836040516113c4919061229a565b60405180910390a3505050565b60008373ffffffffffffffffffffffffffffffffffffffff163b1115611582578273ffffffffffffffffffffffffffffffffffffffff1663150b7a02611415610fc0565b8685856040518563ffffffff1660e01b81526004016114379493929190612ab3565b6020604051808303816000875af192505050801561147357506040513d601f19601f820116820180604052508101906114709190612b14565b60015b6114f7573d80600081146114a3576040519150601f19603f3d011682016040523d82523d6000602084013e6114a8565b606091505b5060008151036114ef57836040517f64a0ae920000000000000000000000000000000000000000000000000000000081526004016114e6919061240b565b60405180910390fd5b805181602001fd5b63150b7a0260e01b7bffffffffffffffffffffffffffffffffffffffffffffffffffffffff1916817bffffffffffffffffffffffffffffffffffffffffffffffffffffffff19161461158057836040517f64a0ae92000000000000000000000000000000000000000000000000000000008152600401611577919061240b565b60405180910390fd5b505b50505050565b606060405180602001604052806000815250905090565b6060600060016115ae84611e15565b01905060008167ffffffffffffffff8111156115cd576115cc6125b2565b5b6040519080825280601f01601f1916602001820160405280156115ff5781602001600182028036833780820191505090505b509050600082602001820190505b600115611662578080600190039150507f3031323334353637383961626364656600000000000000000000000000000000600a86061a8153600a858161165657611655612b41565b5b0494506000850361160d575b819350505050919050565b60007f01ffc9a7000000000000000000000000000000000000000000000000000000007bffffffffffffffffffffffffffffffffffffffffffffffffffffffff1916827bffffffffffffffffffffffffffffffffffffffffffffffffffffffff1916149050919050565b60006002600083815260200190815260200160002060009054906101000a900473ffffffffffffffffffffffffffffffffffffffff169050919050565b808061174d5750600073ffffffffffffffffffffffffffffffffffffffff168273ffffffffffffffffffffffffffffffffffffffff1614155b1561188157600061175d84610efb565b9050600073ffffffffffffffffffffffffffffffffffffffff168373ffffffffffffffffffffffffffffffffffffffff16141580156117c857508273ffffffffffffffffffffffffffffffffffffffff168173ffffffffffffffffffffffffffffffffffffffff1614155b80156117db57506117d98184610cff565b155b1561181d57826040517fa9fbf51f000000000000000000000000000000000000000000000000000000008152600401611814919061240b565b60405180910390fd5b811561187f57838573ffffffffffffffffffffffffffffffffffffffff168273ffffffffffffffffffffffffffffffffffffffff167f8c5be1e5ebec7d5bd14f71427d1e84f3dd0314c0f7b2291e5b200ac8c7c3b92560405160405180910390a45b505b836004600085815260200190815260200160002060006101000a81548173ffffffffffffffffffffffffffffffffffffffff021916908373ffffffffffffffffffffffffffffffffffffffff16021790555050505050565b6118e38383611f68565b6118f060008484846113d1565b505050565b600080611901846116d7565b9050600073ffffffffffffffffffffffffffffffffffffffff168373ffffffffffffffffffffffffffffffffffffffff161461194357611942818486612061565b5b600073ffffffffffffffffffffffffffffffffffffffff168173ffffffffffffffffffffffffffffffffffffffff16146119d457611985600085600080611714565b6001600360008373ffffffffffffffffffffffffffffffffffffffff1673ffffffffffffffffffffffffffffffffffffffff168152602001908152602001600020600082825403925050819055505b600073ffffffffffffffffffffffffffffffffffffffff168573ffffffffffffffffffffffffffffffffffffffff1614611a57576001600360008773ffffffffffffffffffffffffffffffffffffffff1673ffffffffffffffffffffffffffffffffffffffff168152602001908152602001600020600082825401925050819055505b846002600086815260200190815260200160002060006101000a81548173ffffffffffffffffffffffffffffffffffffffff021916908373ffffffffffffffffffffffffffffffffffffffff160217905550838573ffffffffffffffffffffffffffffffffffffffff168273ffffffffffffffffffffffffffffffffffffffff167fddf252ad1be2c89b69c2b068fc378daa952ba7f163c4a11628f55a4df523b3ef60405160405180910390a4809150509392505050565b6008805490506009600083815260200190815260200160002081905550600881908060018154018082558091505060019003906000526020600020016000909190919091505550565b6000611b6383610abe565b9050600060076000848152602001908152602001600020549050818114611c48576000600660008673ffffffffffffffffffffffffffffffffffffffff1673ffffffffffffffffffffffffffffffffffffffff168152602001908152602001600020600084815260200190815260200160002054905080600660008773ffffffffffffffffffffffffffffffffffffffff1673ffffffffffffffffffffffffffffffffffffffff168152602001908152602001600020600084815260200190815260200160002081905550816007600083815260200190815260200160002081905550505b6007600084815260200190815260200160002060009055600660008573ffffffffffffffffffffffffffffffffffffffff1673ffffffffffffffffffffffffffffffffffffffff16815260200190815260200160002060008381526020019081526020016000206000905550505050565b60006001600880549050611ccd919061293b565b9050600060096000848152602001908152602001600020549050600060088381548110611cfd57611cfc6129cf565b5b906000526020600020015490508060088381548110611d1f57611d1e6129cf565b5b906000526020600020018190555081600960008381526020019081526020016000208190555060096000858152602001908152602001600020600090556008805480611d6e57611d6d612b70565b5b6001900381819060005260206000200160009055905550505050565b60006001611d9784610abe565b611da1919061293b565b905081600660008573ffffffffffffffffffffffffffffffffffffffff1673ffffffffffffffffffffffffffffffffffffffff168152602001908152602001600020600083815260200190815260200160002081905550806007600084815260200190815260200160002081905550505050565b600080600090507a184f03e93ff9f4daa797ed6e38ed64bf6a1f0100000000000000008310611e73577a184f03e93ff9f4daa797ed6e38ed64bf6a1f0100000000000000008381611e6957611e68612b41565b5b0492506040810190505b6d04ee2d6d415b85acef81000000008310611eb0576d04ee2d6d415b85acef81000000008381611ea657611ea5612b41565b5b0492506020810190505b662386f26fc100008310611edf57662386f26fc100008381611ed557611ed4612b41565b5b0492506010810190505b6305f5e1008310611f08576305f5e1008381611efe57611efd612b41565b5b0492506008810190505b6127108310611f2d576127108381611f2357611f22612b41565b5b0492506004810190505b60648310611f505760648381611f4657611f45612b41565b5b0492506002810190505b600a8310611f5f576001810190505b80915050919050565b600073ffffffffffffffffffffffffffffffffffffffff168273ffffffffffffffffffffffffffffffffffffffff1603611fda5760006040517f64a0ae92000000000000000000000000000000000000000000000000000000008152600401611fd1919061240b565b60405180910390fd5b6000611fe883836000610ff8565b9050600073ffffffffffffffffffffffffffffffffffffffff168173ffffffffffffffffffffffffffffffffffffffff161461205c5760006040517f73c6ac6e000000000000000000000000000000000000000000000000000000008152600401612053919061240b565b60405180910390fd5b505050565b61206c838383612125565b61212057600073ffffffffffffffffffffffffffffffffffffffff168373ffffffffffffffffffffffffffffffffffffffff16036120e157806040517f7e2732890000000000000000000000000000000000000000000000000000000081526004016120d891906124a1565b60405180910390fd5b81816040517f177e802f0000000000000000000000000000000000000000000000000000000081526004016121179291906129a6565b60405180910390fd5b505050565b60008073ffffffffffffffffffffffffffffffffffffffff168373ffffffffffffffffffffffffffffffffffffffff16141580156121dd57508273ffffffffffffffffffffffffffffffffffffffff168473ffffffffffffffffffffffffffffffffffffffff16148061219e575061219d8484610cff565b5b806121dc57508273ffffffffffffffffffffffffffffffffffffffff166121c483610f83565b73ffffffffffffffffffffffffffffffffffffffff16145b5b90509392505050565b6000604051905090565b600080fd5b600080fd5b60007fffffffff0000000000000000000000000000000000000000000000000000000082169050919050565b61222f816121fa565b811461223a57600080fd5b50565b60008135905061224c81612226565b92915050565b600060208284031215612268576122676121f0565b5b60006122768482850161223d565b91505092915050565b60008115159050919050565b6122948161227f565b82525050565b60006020820190506122af600083018461228b565b92915050565b600081519050919050565b600082825260208201905092915050565b60005b838110156122ef5780820151818401526020810190506122d4565b60008484015250505050565b6000601f19601f8301169050919050565b6000612317826122b5565b61232181856122c0565b93506123318185602086016122d1565b61233a816122fb565b840191505092915050565b6000602082019050818103600083015261235f818461230c565b905092915050565b6000819050919050565b61237a81612367565b811461238557600080fd5b50565b60008135905061239781612371565b92915050565b6000602082840312156123b3576123b26121f0565b5b60006123c184828501612388565b91505092915050565b600073ffffffffffffffffffffffffffffffffffffffff82169050919050565b60006123f5826123ca565b9050919050565b612405816123ea565b82525050565b600060208201905061242060008301846123fc565b92915050565b61242f816123ea565b811461243a57600080fd5b50565b60008135905061244c81612426565b92915050565b60008060408385031215612469576124686121f0565b5b60006124778582860161243d565b925050602061248885828601612388565b9150509250929050565b61249b81612367565b82525050565b60006020820190506124b66000830184612492565b92915050565b6000806000606084860312156124d5576124d46121f0565b5b60006124e38682870161243d565b93505060206124f48682870161243d565b925050604061250586828701612388565b9150509250925092565b600060208284031215612525576125246121f0565b5b60006125338482850161243d565b91505092915050565b6125458161227f565b811461255057600080fd5b50565b6000813590506125628161253c565b92915050565b6000806040838503121561257f5761257e6121f0565b5b600061258d8582860161243d565b925050602061259e85828601612553565b9150509250929050565b600080fd5b600080fd5b7f4e487b7100000000000000000000000000000000000000000000000000000000600052604160045260246000fd5b6125ea826122fb565b810181811067ffffffffffffffff82111715612609576126086125b2565b5b80604052505050565b600061261c6121e6565b905061262882826125e1565b919050565b600067ffffffffffffffff821115612648576126476125b2565b5b612651826122fb565b9050602081019050919050565b82818337600083830152505050565b600061268061267b8461262d565b612612565b90508281526020810184848401111561269c5761269b6125ad565b5b6126a784828561265e565b509392505050565b600082601f8301126126c4576126c36125a8565b5b81356126d484826020860161266d565b91505092915050565b600080600080608085870312156126f7576126f66121f0565b5b60006127058782880161243d565b94505060206127168782880161243d565b935050604061272787828801612388565b925050606085013567ffffffffffffffff811115612748576127476121f5565b5b612754878288016126af565b91505092959194509250565b60008060408385031215612777576127766121f0565b5b60006127858582860161243d565b92505060206127968582860161243d565b9150509250929050565b7f4e487b7100000000000000000000000000000000000000000000000000000000600052602260045260246000fd5b600060028204905060018216806127e757607f821691505b6020821081036127fa576127f96127a0565b5b50919050565b7f4d617820737570706c7920726561636865640000000000000000000000000000600082015250565b60006128366012836122c0565b915061284182612800565b602082019050919050565b6000602082019050818103600083015261286581612829565b9050919050565b7f496e73756666696369656e742066756e64730000000000000000000000000000600082015250565b60006128a26012836122c0565b91506128ad8261286c565b602082019050919050565b600060208201905081810360008301526128d181612895565b9050919050565b7f4e487b7100000000000000000000000000000000000000000000000000000000600052601160045260246000fd5b600061291282612367565b915061291d83612367565b9250828201905080821115612935576129346128d8565b5b92915050565b600061294682612367565b915061295183612367565b9250828203905081811115612969576129686128d8565b5b92915050565b600060608201905061298460008301866123fc565b6129916020830185612492565b61299e60408301846123fc565b949350505050565b60006040820190506129bb60008301856123fc565b6129c86020830184612492565b9392505050565b7f4e487b7100000000000000000000000000000000000000000000000000000000600052603260045260246000fd5b600081905092915050565b6000612a14826122b5565b612a1e81856129fe565b9350612a2e8185602086016122d1565b80840191505092915050565b6000612a468285612a09565b9150612a528284612a09565b91508190509392505050565b600081519050919050565b600082825260208201905092915050565b6000612a8582612a5e565b612a8f8185612a69565b9350612a9f8185602086016122d1565b612aa8816122fb565b840191505092915050565b6000608082019050612ac860008301876123fc565b612ad560208301866123fc565b612ae26040830185612492565b8181036060830152612af48184612a7a565b905095945050505050565b600081519050612b0e81612226565b92915050565b600060208284031215612b2a57612b296121f0565b5b6000612b3884828501612aff565b91505092915050565b7f4e487b7100000000000000000000000000000000000000000000000000000000600052601260045260246000fd5b7f4e487b7100000000000000000000000000000000000000000000000000000000600052603160045260246000fdfea2646970667358221220f3e317cf41ed12931e44e806e0d87977a8d0c39003e20a5916a166bd61eb1baf64736f6c63430008140033",
  "linkReferences": {},
  "deployedLinkReferences": {}
}